:020000040800F2
:10000000D88D0120610200086B220008651F0008DE
:10001000692200086F04000819250008000000008C
:10002000000000000000000000000000A101000826
:100030007104000800000000FD010008792200089A
:100040007B0200087B0200087B0200087B0200089C
:100050007B0200087B0200087B0200087B0200088C
:100060007B0200087B0200087B0200087B0200087C
:100070007B0200087B0200087B0200087B0200086C
:100080007B0200087B0200087B0200087B0200085C
:100090007B0200087B0200087B0200087B0200084C
:1000A0007B0200087B0200087B0200087B0200083C
:1000B0007B0200087B0200087B0200087B0200082C
:1000C0007B0200087B0200087B0200087B0200081C
:1000D0007B0200087B0200087B0200087B0200080C
:1000E0007B0200087B0200087B0200087B020008FC
:1000F0007B0200087B0200087B0200087B020008EC
:100100007B0200087B0200087B0200087B020008DB
:100110007B0200087B020008392300087B020008EC
:100120007B0200087B0200087B0200087B020008BB
:100130007B0200080D050008AD0900087B020008DD
:100140007B0200087B0200087B0200087B0200089B
:100150007B0200087B0200087B0200087B0200088B
:100160007B0200087B0200087B0200087B0200087B
:100170007B0200087B0200087B02000800000000F0
:100180007B0200087B020008DFF810D000F032F993
:100190000048004799640008AFF30080D88D012023
:1001A0002C4B19680868B0E8F04F80F30988BFF35A
:1001B0006F8F4FF0000080F311887047000000003F
:1001C00008480068006880F308884FF0000080F35A
:1001D000148862B661B6BFF34F8FBFF36F8F00DF35
:1001E00000BF00BF08ED00E0DFF80C00016841F43B
:1001F00070010160704700BF88ED00E0EFF30980F7
:10020000BFF36F8F134B1A681EF0100F08BF20ED5D
:10021000108A20E9F04F106009B44FF0500080F3CD
:100220001188BFF34F8FBFF36F8F0FF0F7F84FF0C8
:10023000000080F3118809BC19680868B0E8F04F25
:100240001EF0100F08BFB0EC108A80F30988BFF3CE
:100250006F8F704710C00120EFF3058070470000DA
:100260000648804706480047FEE7FEE7FEE7FEE750
:10027000FEE7FEE7FEE7FEE7FEE7FEE729230008CC
:10028000890100082DE9F05F0546002092469B4653
:1002900088460646814640241BE02846414647469C
:1002A000224600F097F853465A46C01A914110D39F
:1002B00011461846224600F07EF82D1A67EB010819
:1002C0004F4622460120002100F075F817EB000987
:1002D0004E41201EA4F10104DFDC484631462A4687
:1002E0004346BDE8F09F00000649074A08685043AE
:1002F00043F2390210440860400870470149086021
:1003000070470000D00000206D4EC64110B5431A62
:10031000934209D28318881803E010F8011D03F8EE
:10032000011D521EF9D210BD40EA01039B0703D004
:1003300009E008C9121F08C0042AFAD203E011F824
:10034000013B00F8013B521EF9D210BDD2B201E0D0
:1003500000F8012B491EFBD270470022F6E710B5CA
:1003600013460A4604461946FFF7F0FF204610BD23
:1003700030B504460020034600E05B1C934203D2E4
:10038000E05CCD5C401BF8D030BD30B50B4601467B
:1003900000202022012409E021FA02F59D4205D324
:1003A00003FA02F5491B04FA02F52844151EA2F1CE
:1003B0000102F1DC30BD202A04DB203A00FA02F110
:1003C000002070479140C2F1200320FA03F3194343
:1003D00090407047202A04DB203A21FA02F00021E5
:1003E000704721FA02F3D040C2F120029140084345
:1003F00019467047064C074D06E0E06840F00103DF
:1004000094E8070098471034AC42F6D3FFF7C0FEDB
:10041000300601087006010870B58C1810F8015BF1
:1004200015F0070301D110F8013B2A1106D110F88D
:10043000012B03E010F8016B01F8016B5B1EF9D191
:100440002B0705D40023521E0DD401F8013BFAE717
:1004500010F8013BCB1A921C03E013F8015B01F882
:10046000015B521EF9D5A142D8D3002070BDFEE732
:1004700070470000F0B500231A464FF000454FF4D6
:100480008C4600BF016903EB830401EBC4010A60E1
:100490004A608A60CA600A620D604A624E604F68B4
:1004A00027F000474F6000EB8307032BB96406D2A7
:1004B0004FF0280C07690CEBC4043C4400E00469CD
:1004C000CC605B1C042BDDD3C26502668266C2660B
:1004D00082650169006800F58050C160F0BD38B5E3
:1004E0000446006800F58050816941F48011816103
:1004F000206800F5805080690090012000F05EFACD
:100500002068009900F58050816138BD014800F0F5
:10051000E7BA0000E8C2012070B5A4B000240125AC
:1005200006468DF828408DF804501494A8038DF8E1
:10053000564005908DF8105002948DF85440C0102C
:100540008DF811508DF81F408DF8204006908DF8E1
:100550001E508DF80F4009948DF81C4012948DF8B0
:100560004C408DF855406946304600F05DF98DF8F5
:1005700081508DF880408DF8824028041B908DF8C2
:10058000685080011F908DF870508DF8885040128F
:100590008DF871501E941D908DF872502394219403
:1005A0008DF8895019A93046199400F0DDF824B06F
:1005B00070BD0020704700F085BF000010B50248F4
:1005C00000F030FD002010BDE8C2012013460A46AD
:1005D00010B50146034800F07BFC002801D04FF025
:1005E000FF3010BDE8C2012013460A4610B501468F
:1005F000034800F03DFE002801D04FF0FF3010BD51
:10060000E8C201202DE9F043836A1830914650F882
:1006100023208D681C4617680026002F6FDB00EB37
:1006200083077F69C7BBD5F800C00127C2F808C09F
:10063000D2F804C0D5F804806FF30C0C4CEA080C17
:10064000C2F804C091F800C05FEACC7C09D0D2F8AF
:1006500000C0D1F814802CF4400C4CEA080CC2F80D
:1006600000C091F800C05FEA8C6C09D5D2F800C0D8
:10067000D1F810802CF0406C4CEA080CC2F800C095
:100680000978490703D5116841F0800111601168AC
:1006900041F08051116042E031E0116821F00051D9
:1006A00011601168B9F1000F02D041F0804101E002
:1006B00021F0804111605B1C042B00D31B1F50F8FC
:1006C0002320116821F0805111601168002903DB9B
:1006D00000EB83014969A9B150F8242000210CE006
:1006E000BFF35F8F136823F000431360641C042C76
:1006F00000D3241F491C50F82420B942F0D3022013
:10070000BDE8F083AD68296891605168D5F804C0F0
:100710006FF30C0141EA0C015160761C7F1CBFF3A2
:100720005F8F116841F000411160A9680029B4D1C0
:100730001168B9F1000F02D041F0804101E021F0D1
:1007400080411160116841F00051116000EB83029B
:10075000416A5161036172B6761C816A31448162DB
:1007600062B60020CCE7000070B50C460168054673
:1007700001F5805188692B4A1040227BEAB30022A0
:10078000637B920642EA4362637FBBB35FF0000380
:1007900042EA0352A37B42EA435263691A43237F2E
:1007A00042EAC312A37F42EA8312236A1A4394F8EF
:1007B000243042EA830202438A61286800F58050AF
:1007C0008669012000F0FAF8286800F580508661FB
:1007D000A169A06822790843216941EA426108437E
:1007E00094F8251040EAC110A16A40EA810021680E
:1007F000084340F40001286801E00FE010E000F534
:1008000080500160286800F580500468012000F0E5
:10081000D5F8286800F58050046070BD0122AFE76C
:100820000123B5E7233FDEF870B5026805460C46A4
:1008300010683A49237C0840A168002B63D000234C
:1008400041EAC351637C002B5FD00023E67F9B0508
:1008500043EA0643194363691943A37FF3B30023B3
:1008600041EA4331237F41EA0331A36919432379E4
:1008700041EA832194F820308BB3002341EA4321DD
:10088000E37B41EAC311636A194394F8283041EAD3
:1008900003110143116028680668012000F08EF8FA
:1008A000286806602A6890694FF641710840A36C79
:1008B000216D41EA034194F84C3063B3002394F86E
:1008C0005560DB01012E00D0002643EAC603194320
:1008D00094F85630012B00D0002301E017E018E017
:1008E00041EA830194F85430012B00D0002341EAFF
:1008F00043010143916128688469012000F05EF89A
:100900002868846170BD01239AE701239EE70123D3
:10091000A6E70123B2E70123D1E700000F8120FF02
:100920002DE9F8434FF00009CDF80090856E04469C
:1009300000EB85004FF00108866CE76E1EE0306A20
:1009400030B9684600F022FB009838B33062B060DE
:10095000B8F1000F12D0A06D18B34FF48C40706046
:10096000BFF35F8F306840F0004030606D1C042D95
:1009700000D32D1F04EB85007F1E866C17B1B8F1E4
:10098000000FDCD1E06EB84206D0206800F5805040
:10099000C0F80890C4E91A57BDE8F8834FF0000882
:1009A000ECE70148DBE7000000460080014800F06A
:1009B00097B80000E8C2012072B6FEE770B50446A1
:1009C00000F080FD0546601C02D004480078044415
:1009D00000F078FD401BA042FAD370BD2400002037
:1009E00010B500F00BF8000605D503484068BDE8D7
:1009F000104006F09BBF10BD04000020D0F88C0012
:100A0000704700296AD002681268C2F3001281F8A8
:100A100028200268126802F060024A6202681268C6
:100A200042F34022521C81F8202002681268C2F36F
:100A30000042CA770268126842F34032521C8A7739
:100A400002681268C2F300320A770268126802F480
:100A500000628A610268126802F480424A61026898
:100A6000126842F38052521C4A740268126842F3C0
:100A7000C052521C0A7402681268C2F3C012CA73D0
:100A80000268126802F460228A6002681268C2F387
:100A900080220A7102689269C2F3400281F85420F0
:100AA0000268926942F3C012521C81F84C2002681D
:100AB000926902F030020A6502689269120C8A6437
:100AC00002689269C2F3800281F85620006880694A
:100AD000C0F3C00081F85500002070470120704726
:100AE00010B50446006800F580504169490607D5F5
:100AF000C169490604D52B494161204600F06AFAD4
:100B0000206800F580504169C90708D0C169C9074C
:100B100005D04FF001114161204600F09FFB206895
:100B200000F580504169090422D5C16909041FD527
:100B3000D4F8881041F00801C4F88810416989048C
:100B40000CD54169184A1140C4F88C10C16921F4D0
:100B5000C031C161E020C4F8840006E0426948F277
:100B600080610A40C4F88C2041612046FFF738FFBD
:100B70002068816B09070AD5C06A00F06000C4F8DC
:100B80009400204600F02CF90020C4F89400074897
:100B90000168090305D54FF400210160204600F0EB
:100BA00065FB10BD4000010000207E00143C0140A8
:100BB000F8B5040003D0D4F8840010B107E0012098
:100BC000F8BD2320C4F88400204600F07DF83B489F
:100BD0000025016841F480410160006800F4804014
:100BE00000903748016821F4000101600168A268A3
:100BF000114301600068206800F58050016841F0F1
:100C00000101016000F05EFC06464FF4FA770BE04C
:100C100000F058FC801BB84206D90420C4F88800B4
:100C2000E020C4F88400CAE7206800F5805000681E
:100C3000C007EDD12046FFF76FFC0021E06801EB13
:100C4000810200EBC200056045608560C56004EB71
:100C500081039861036843F480130360032905D27C
:100C60002826E36806EBC2021A4400E0E268C2608C
:100C7000026842F440020260491C0429DED3A562E6
:100C80002068E16800F5805001612046FFF7F2FB23
:100C900060680C4A818811640178C37841EA036175
:100CA000837840781B0443EA002001435164C4F870
:100CB00088501020C4F884000020F8BD4438024059
:100CC0000438014000800240F0B587B0044614218A
:100CD0006846FFF742FB3C492068884271D13B4897
:100CE0000024016841F000710160016801F00071A9
:100CF0000591016841F080610160016801F0806147
:100D00000591016841F000610160016801F0006136
:100D10000591016841F004010160016801F00401DE
:100D20000591016841F001010160016801F00101D4
:100D30000591016841F0400101600068022500F062
:100D4000400005903220CDE9000502AA03260B27BA
:100D500082E8D00069461E4800F0B6FA8620CDE948
:100D6000000502AA694682E8D0001A4800F0ACFAF1
:100D70004FF4D040CDE9000502AA694682E8D000D0
:100D8000154800F0A1FA002205213D2000F038FCB2
:100D90003D2000F027FC002205213E2000F030FC21
:100DA0003E2000F01FFC0D4C00220821204600F0E0
:100DB00083FB3220FFF702FE01220821204600F0CB
:100DC0007BFB07B0F0BD00000080024030380240DD
:100DD000000802400000024000180240000C0240DF
:100DE00070472DE9F84F4FF000075FEA010904460C
:100DF000B84604D0D4F8840023285ED105E054F826
:100E0000880F40F00100206057E0E66D4FF0000BC6
:100E100004EB8600856CE06EC0F1040A3AE02868B5
:100E2000C00503D5A869A067E869606728688005E0
:100E300001D4E06F30B32868800503D5C4F860B0F2
:100E4000C4F864B0606900902868C00508D52868B7
:100E5000C0F30D40001F009028684FF00108206784
:100E6000AA682A62009804F1800183B2081F00F08A
:100E7000B7F8206E401C2066616E009808446066DA
:100E8000C5F820B0761C042E00D3361F04EB860074
:100E90007F1C856C2868002804DB574502D2B8F116
:100EA000000FBCD0E06EC019E06602D02046FFF70C
:100EB00037FDE665B8F1010F02D00120BDE8F88FDB
:100EC000E16FC9F800100020C4F87CB0F6E700001C
:100ED0002DE9F041984603680546186900F01C04A6
:100EE0004FF6FF7000EAC1204FF4F861204301EA99
:100EF0008211014321F0020040F001041C6100F066
:100F0000E1FA06464FF480370AE000BF00F0DAFA53
:100F1000801BB84202D30120BDE8F0812868046933
:100F2000E007F3D12868406981B20020C8F80010BA
:100F3000F2E700002DE9F04700F118058046D5E9F9
:100F40000A64012718E000BF05EB8409761ED9F872
:100F50001400B8B1D8F80C1004EB840251F8321028
:100F600000290CDB00F080F90021641C04F003046C
:100F7000C9F81410C5E90A640EB1002FE4D10020AD
:100F8000BDE8F087641C04F00304F5E71CB50446D3
:100F90000D4805F035FF03000FD003F1200020605D
:100FA0000A4818614FF4C0612068CDE900010021B2
:100FB0004122084606F014FF1CBD054901200870B7
:100FC000002020601CBD0000480301086584000863
:100FD000040000200148406806F0A8BC040000207E
:100FE00010B5002442F8204D1481538104681CB1CF
:100FF0000C6822600A6004E00260FBE70189194482
:10100000018100680028F9D110BD10B519B1D0F8E0
:101010008420102A01D0012010BDFFF705FC00201C
:1010200010BD000070B505460068006920F01C0482
:1010300000F0D2FB1049114A0144914202D244F01F
:10104000080416E00E490F4A0144914202D244F0CE
:101050000C040EE00C490D4A0144914209D30C499D
:1010600008440C49884202D244F0040401E044F0F0
:1010700010042868046170BD00D3CEFEC0E1E40016
:1010800040F1E9FD40787D0100796CFC005A620274
:10109000001F0AFA80F0FA0270B50446D0F8840006
:1010A000102801D0012070BD2325C4F884500120F0
:1010B000A0652068C16B41F40271C1632068D0F85B
:1010C0000C11224A1143C0F80C112068D0F81011FD
:1010D00041F40311C0F810110420E0662046FFF728
:1010E0001FFC2068016841F0080101602068066863
:1010F0000120FFF763FC206806602068016841F06A
:1011000004010160206806680120FFF757FC206891
:1011100006602046FFF7E3F9206800F580508169FA
:1011200041F400518161206800F58050816941F0EF
:1011300002018161206800F58050C169044A1143B1
:10114000C161C4F88450002070BD0000600002003E
:10115000C1A0010070B50446D0F88400232801D056
:10116000012070BD2320C4F88400206800F5805061
:10117000C1691F4A1140C161206800F58050816932
:1011800021F400518161206800F58050816921F0CF
:10119000020181612068016821F00401016020687A
:1011A00005680120FFF70AFC206805602046FFF76C
:1011B00096F92068016821F008010160206805683F
:1011C0000120FFF7FBFB20680560002004EB800195
:1011D000896C4A6842F000424A60401C0428F5D3FA
:1011E0000020A0651020C4F88400002070BD00001D
:1011F0003E5FFEFF10B5044621B1D4F884002328D9
:1012000005D010E054F8880F40F001000AE0486B68
:10121000E06301222046FFF7F5F930B154F8880F5A
:1012200040F002002060012010BDBFF34F8FA06A84
:10123000401CA062042801D3001FA062206800F5B2
:1012400080504169490706D5042141612068002189
:1012500000F580504160002010BD0000014880680A
:1012600006F064BB0400002007F04AB87047000095
:101270002DE9F04106680546306900F01C044FF680
:10128000FF7000EAC1204FF4F861204301EA8211A7
:10129000014398B241F0030470612868046100F0D2
:1012A00011F906464FF480370AE000BF00F00AF952
:1012B000801BB84202D30120BDE8F0812868046990
:1012C000E007F3D1F8E700002DE9F84FDFF8BCA103
:1012D0000022012503264FF00F090AF1040BAAF1A1
:1012E000040E00BF0B6805FA02F42340A34270D13C
:1012F0000F7907F00307012F01D0022F16D187685D
:101300004FEA420806FA08FC27EA0C07D1F80CC09D
:101310000CFA08FC4CEA070CC0F808C04768A74361
:101320000C79C4F3001494403C4344600C79E443CA
:10133000A4070AD0C4684FEA420C06FA0CF7BC4373
:101340008F6807FA0CF72743C7600C7904F0030491
:10135000022C12D1D40800EB840CDCF82040570793
:10136000FF0E09FA07F824EA0804D1F8108008FAF9
:1013700007F848EA0408CCF8208004684FEA420CD9
:1013800006FA0CF7BC430F7907F0030707FA0CF7CE
:10139000274307604C6814F4403F70D03C4C2768EA
:1013A00047F480472760246822F0030704F4804450
:1013B0000094384C07EB040CDCF8084897074FEA18
:1013C000177809FA08F7BC43334FB84202D1002717
:1013D00024E054E0314FB84201D101271EE0304FE4
:1013E000B84201D1022719E02E4FB84201D103279C
:1013F00014E02D4FB84201D104270FE02B4FB84223
:1014000001D105270AE02A4FB84201D1062705E09D
:10141000284FB84201D1072700E0082707FA08F74C
:101420002743CCF80878DAF800405746D1F804C0D2
:101430009C435FEACC2C00D51C433C60DBF80040A9
:101440005F46D1F804C09C435FEA8C2C00D51C4356
:101450003C60DEF800407746D1F804C09C435FEA68
:101460008C3C00D51C433C60084F083F3C68D1F8D9
:1014700004C09C435FEACC3C00D51C433C60521C3A
:10148000102AFFF42FAFBDE8F88F0000083C0140A0
:101490004438024000300140000002400004024095
:1014A00000080240000C02400010024000140240FC
:1014B00000180240001C02400AB181617047090413
:1014C000FBE700000148806870470000240000200E
:1014D000024881680278114481607047240000202E
:1014E0000B4810B5016841F400710160016841F4D6
:1014F00080610160016841F480710160032000F0A7
:101500009FF80F2000F006F800F050F8002010BD02
:10151000003C024030B505461F4887B000240168F2
:1015200041F010010160006806A900F01000009071
:1015300001A800F031F90498A8B100F053F9400077
:101540001649174AB0FBF1F11648491E026040F2F5
:10155000E732C0E90324C0E90114846100F04AFBCA
:10156000040003D015E000F03DF9E9E70D4800F074
:101570006FFB04000DD1362000F034F8102D07D297
:1015800000222946362000F03BF80748056000E0BD
:10159000012407B0204630BD4038024040420F00D1
:1015A0000010004060C10120280000200C4882B0DB
:1015B000016841F480410160006800F480400090BF
:1015C0000748001F016841F0805101600068002257
:1015D00000F0805000900F21901E02B000F010B873
:1015E00044380240002809DB00F01F02012191402D
:1015F0004009800000F1E020C0F8001170470000B1
:10160000F0B40E4B1B680C46C3F30223C3F107056D
:10161000042D00D90425191D072901D2002300E05B
:10162000DB1E012606FA05F1491E214099409E4025
:10163000761E16403143F0BC00F080BF0CED00E098
:10164000064900F0070208684FF6FF03184040EA19
:101650000220034A10430860704700000CED00E0D0
:101660000000FA052DE9F0470E46050065D0DFF8C9
:101670001481D8F80000F7B200F00700B04207D29A
:1016800088F80070D8F8000000F00700B04254D18C
:1016900028683D4C810712D5400703D5206840F4E7
:1016A000E05020602878000703D5206840F46040AF
:1016B00020602068A96820F0F000084320602878A6
:1016C000C0072DD0304968680839012812D0022897
:1016D00013D0032811D00968890700292DDA216861
:1016E00021F0030101432160FFF7ECFE814641F246
:1016F000883A0EE009688903EFE709688901ECE799
:10170000FFF7E0FEA0EB0901514502D90320BDE837
:10171000F0872068696800F00C00B0EB810FEFD112
:10172000D8F80010404601F00701B14207D9077010
:10173000006800F00700B04201D00120E7E72878F8
:10174000400705D52068E96820F4E0500843206090
:101750002878000706D52068296920F4604040EA0F
:10176000C100206000F05EF82168084AC1F303114F
:10177000515CC8400649086006480068FFF7CAFE89
:101780000020C4E7003C024008380240540301082E
:1017900030000020280000200F2202600C4A13684D
:1017A00003F003034360136803F0F00383601368DE
:1017B00003F4E053C36012684FF4E05303EAD2022B
:1017C00002610448006800F00700086070470000EC
:1017D00008380240003C02400148006870470000A1
:1017E000300000200448054900680968044AC1F334
:1017F0008221515CC8407047300000200838024008
:10180000640301080448054900680968044AC1F3F3
:101810004231515CC8407047300000200838024017
:1018200064030108154810B5006810F00C02144854
:1018300013D04110042A0FD0082A0ED10F4C241FB8
:101840002268236802F03F025B0207D52068C0F3DC
:101850008810A0FB010106E0084610BD2168C1F315
:101860008811A1FB00010023FEF70CFD2168C1F3E4
:101870000141491C4900B0FBF1F010BD083802409D
:101880000024F4002DE9F84F04006ED02078DFF832
:101890004C93C007A9F104054AD009F1040001687E
:1018A000C1F38101012908D00068C0F3810002283A
:1018B0000AD1D9F80000400206D52868800337D540
:1018C00060680028E1D033E06068B0F5803F10D058
:1018D000B0F5A02F286810D020F480302860286848
:1018E00020F4802028606068A8B1FFF7EBFD064671
:1018F0000DE0286840F48030F4E740F48020286050
:10190000F7E700BFFFF7DEFD801B642873D8286867
:101910008003F7D50CE0FFF7D5FD064605E000BFD4
:10192000FFF7D0FD801B6428F0D828688003F7D427
:101930002078DFF8AC8280074FF0000A3ED5A74838
:10194000001D016811F00C0F08D00068C0F3810081
:1019500002280BD1D9F80000400207D4286880077C
:1019600016D5E068012800D112E033E1E068B8B193
:101970000120C8F80000FFF7A5FD064605E000BFFE
:10198000FFF7A0FD801B0228C0D828688007F7D584
:101990002868216920F0F80040EAC10028600DE0C5
:1019A000C8F800A0FFF78EFD064604E0FFF78AFDA9
:1019B000801B02281FD828688007F7D420780007EA
:1019C00022D5864F87486169703771B10121016066
:1019D000FFF778FD064604E0FFF774FD801B022840
:1019E00009D838688007F7D50EE0C0F800A0FFF7E7
:1019F00069FD064605E082E0FFF764FD801B0228D2
:101A00007DD838688007F7D42078400768D5DFF89C
:101A1000CCB100270BF13C0BDBF80000C0000BD46D
:101A2000DBF8001041F08051CBF80010DBF800002B
:101A3000012700F0805000906B4E3068C00510D434
:101A4000306840F480703060FFF73CFD009005E0A6
:101A5000FFF738FD0099401A022850D83068C005B9
:101A6000F6D55E4EA0686C3601280FD00528306888
:101A700010D020F001003060306820F004003060A9
:101A8000A068B8B1FFF71EFD00900FE0306840F08D
:101A90000100F4E740F004003060F7E7FFF712FDC3
:101AA0000099411A41F28830814266D83068800737
:101AB000F4D50EE0FFF706FD009007E0FFF702FD0A
:101AC0000099411A41F28830814256D83068800727
:101AD000F4D42FB1DBF8001021F08051CBF80010C6
:101AE000A069C8B33D49091D0968C1F381010229F4
:101AF0004AD00228504607D0C8F8600000E03CE019
:101B0000FFF7E0FC04463BE04746C8F86000FFF7FB
:101B1000D9FC064605E000BFFFF7D4FC801B022875
:101B20002BD828688001F7D4D4E907010843A16ABB
:101B30002E4A490802EB0141626A41EA82110843D8
:101B400094F82C1040EA0161C9F8001001203866B1
:101B5000FFF7B8FC044606E03EE000BFFFF7B2FC2A
:101B6000001B022809D828688001F7D534E000BF9F
:101B7000FFF7A8FC001B022802D90320BDE8F88F5C
:101B800028688001F4D427E00128F7D0D9F80000B4
:101B9000E26900F4800191421CD1226A00F03F0109
:101BA000914217D147F6C071626A0140B1EB821FC2
:101BB00010D1A26A4FF0FF3300F4403103EB520220
:101BC000B1EB024F06D194F82C1000F07060B0EB2E
:101BD000016F01D00120D1E70020CFE70438024097
:101BE00000004742800E4742007000400000FFFFA7
:101BF0007047704710B5040003D094F83D0010B151
:101C000007E0012010BD002084F83C00204600F0D1
:101C10001EF8022084F83D00211D206800F092FB90
:101C2000012084F8460084F83E0084F83F0084F8E0
:101C3000400084F8410084F8420084F8430084F8AE
:101C4000440084F8450084F83D00002010BD704732
:101C500090F83D10012901D001207047022180F841
:101C60003D100168CA6842F00102CA60006811496B
:101C7000884214D0B0F1804F11D00F4988420ED065
:101C80000E4988420BD00E49884208D00D4988423F
:101C900005D00D49884202D00C49884204D18168A0
:101CA00001F00701062903D0016841F0010101603C
:101CB0000020704700000140000400400008004080
:101CC000000C0040000401400040014000180040AA
:101CD000704770B50446006801694FF00005C943BC
:101CE000890715D4C168C943890711D4E91E016168
:101CF00001202077206880698007204602D0FFF706
:101D0000E7FF04E000F098F8204600F096F8257709
:101D100020680169C943490717D4C168C943490705
:101D200013D46FF0040101610220207720688069DC
:101D300010F4407F204602D0FFF7CAFF04E000F015
:101D40007BF8204600F079F8257720680169C943BF
:101D5000090716D4C168C943090712D46FF00801F6
:101D60000161042020772068C0698007204602D0E6
:101D7000FFF7AEFF04E000F05FF8204600F05DF8EA
:101D8000257720680169C943C90617D4C168C943CA
:101D9000C90613D46FF01001016108202077206874
:101DA000C06910F4407F204602D0FFF791FF04E0A5
:101DB00000F042F8204600F040F8257720680169DD
:101DC000C943C90708D1C168C943C90704D1891EDD
:101DD0000161204600F032F820680169C943090614
:101DE00009D4C168C943090605D46FF080010161B7
:101DF0002046FFF7FDFE20680169C943490609D462
:101E0000C168C943490605D46FF04001016120460D
:101E100000F01EF820680169C94389060BD4C16827
:101E2000C943890607D46FF0200101612046BDE84F
:101E30007040FFF7DEBE70BD704770470068034911
:101E4000884201D1FFF744BB7047000000100040FA
:101E5000704770B5040004D094F83D00002510B11F
:101E600006E0012070BD84F83C50204600F022F8C6
:101E7000242084F83D002068C16821F40051C1602D
:101E8000204600F0C3FA2068016921F49041016105
:101E90002068416921F02A0141612068C16841F44C
:101EA0000051C1602564202084F83D0084F83E0084
:101EB000002070BD70B586B0044614216846FEF758
:101EC0004CFA234E226800212248022303240725CE
:101ED000B2421AD11F4A1432166846F01006166034
:101EE000126802F010020592026842F001020260DC
:101EF000006802AA00F00100059082E8320060024A
:101F0000CDE90003694614481DE0144EB2421CD1CD
:101F1000104A1032166846F480261660126802F4E1
:101F200080220592026842F002020260006802AA62
:101F300000F00200059082E832004FF44060CDE9E5
:101F4000000369460648FFF7BFF906B070BD000000
:101F500000100140303802400000024000480040BC
:101F600000040240FEE738B5044600200090636993
:101F70006A460121206898476FF00405002825DB98
:101F800063696A4601212068984700281EDB009893
:101F9000400701D4012038BD63696A4600212068EA
:101FA0009847002812DB0098C10408D44FF404516C
:101FB00081431CD081041CD4C0051CD415E0636986
:101FC0006A461F2120689847002801DA284638BD54
:101FD0000098C10401D4062038BDC0F38200062851
:101FE00005D0022805D0052805D0052038BD0220DF
:101FF00038BD032038BD042038BD2DE9F843044620
:1020000000200646054600906068A8BBA06800B1A5
:10201000804720206FF00407206063696A46122120
:1020200030469847002801DA3D4607E0009800F066
:102030001F00B04202D10025266002E0761C1F2E50
:10204000EBD920681F2802D96FF0020530E07DBB74
:1020500023694FF4004200219847002830DB636970
:102060006A46002120689847002827DBA06980473E
:1020700006464FF4FA780CE00EE0A0698047801B1A
:10208000404518D863696A460021206898470028AF
:1020900014DB00980004F0D4A069804706464FF492
:1020A000FA67A0698047801BB842FAD901206060B6
:1020B0002846BDE8F8836FF00105F9E73D46F7E7EC
:1020C0006FF00305F4E788B1CA687AB18A686AB12B
:1020D0000A695AB10A6882604A68C260CA68426185
:1020E0008A68026109698161002070474FF0FF3002
:1020F00070470000F0B587B014216846FEF72DF94F
:102100002D480024016841F004010160016801F0DC
:1021100004010591016841F020010160016801F0AE
:1021200020010591016841F080010160016801F022
:1021300080010591016841F001010160016801F031
:1021400001010591016841F002010160016801F09F
:1021500002010591016841F008010160016801F088
:1021600008010591016841F0400101600068134ECB
:1021700000F040004FF4E06505900022294630460B
:10218000FFF79AF90E4F002208213846FFF794F91D
:1021900000950125CDE90154694630460394FFF7C7
:1021A00093F808200090CDE901546946384603941D
:1021B000FFF78AF807B0F0BD303802400014024043
:1021C000000C02400EB5002108460BF051FF1E49DD
:1021D00000201F4A0860091D1B4B0860091D0833B9
:1021E0000860CDE90002194902911A1F111F194810
:1021F00004F04CFE174805F065F8164890F83100D9
:102200004007144802D505F075F901E005F060F8C3
:102210001149104805F0B0F80E4824213830FEF777
:102220009CF80C480DA13830024601604FF48061E3
:1022300041611021816107490A4805F0A3FBBDE80F
:102240000E40044801F0CEBD04C0012041E2000868
:10225000C94E0008F0C30120254D00084574684CA4
:10226000696E6B00294D0008FEE7FEE7FFF7AAFF45
:10227000012005F08FF9FBE710B54FF0E020006971
:102280000DF056FE012803D0BDE810400DF072B9E4
:1022900010BD000030B593B030216846FEF75DF800
:1022A00014210CA8FEF759F81D480025016841F0DB
:1022B00080510160006800F0805011901948016859
:1022C00041F4804101600068022400F480401190D4
:1022D00001200090000401908001CDE9064008AA89
:1022E0000420A02182E813000B906846FFF7CAFA89
:1022F00008B172B6FEE70CA90F2081E831004FF457
:10230000A0500F904FF48050109005210CA8FFF7BB
:10231000A9F9002801D072B6FEE713B030BD000065
:1023200040380240007000400248016841F47001EA
:102330000160704788ED00E00148FFF7CABC00006B
:1023400060C10120F0B50268254C264D264E274F6E
:10235000274B4FF0804CA04209D0604507D0A842DF
:1023600005D0B04203D0B84201D0984204D122F047
:10237000700E4A6842EA0E02A0421BD0604519D096
:10238000A84217D0B04215D0B84213D0984211D00D
:10239000184DA8420ED0184DA8420BD0174DA84298
:1023A00008D0174DA84205D0164DA84202D0164DB0
:1023B000A84203D122F44075CA682A434D6922F02D
:1023C00080022A4302608A68C2620A688262A0426E
:1023D00001D0984201D10969016301214161F0BD39
:1023E000000001400004004000080040000C0040D4
:1023F0000004014000400140004401400048014009
:1024000000180040001C00400020004070B5044649
:1024100000680169E26821F44051114301612169BA
:10242000A068E26908436169114308432168CA68EA
:1024300049F20C639A430243CA6020684169A26969
:1024400021F440711143416131492068884202D032
:102450003049884202D1FFF7D5F901E0FFF7C2F910
:10246000E2690023192164253226B2F5004F626823
:1024700028D0A0FB0101930F9200FDF703FF014656
:10248000B0FBF5F06FF01802504301EB800006EB53
:102490000010B0FBF5F000F0F002B1FBF5F002EB3C
:1024A0000012B1FBF5F06FF01803584301EB800008
:1024B00006EB0010B0FBF5F000F00F0021681044AF
:1024C000886070BDA0FB010192185B41FDF7DAFE48
:1024D0000146B0FBF5F00201B1FBF5F06FF0180317
:1024E000584301EB800006EBC000B0FBF5F000F0B4
:1024F000F80002EB4002B1FBF5F0584301EB80001D
:1025000006EBC000B0FBF5F000F00700D6E70000D6
:102510000010014000140140FEE700000FB4054B1D
:1025200010B503A9044A029800F028F810BC5DF821
:1025300014FB0000A14F0008D4C001200907090EB8
:10254000002804DB00F1E02080F80014704700F060
:102550000F0000F1E02080F8141D704702E008C869
:10256000121F08C1002AFAD170477047002001E00D
:1025700001C1121F002AFBD1704700002DE9FF4F57
:102580008BB09A460F460546002606E025280BD05C
:1025900052460D9990476D1C761C28780028F5D17D
:1025A0000FB03046BDE8F08F0024A04601226049FC
:1025B00000E0044315F8013F203B02FA03F0084213
:1025C000F7D128782E2817D115F8010F44F004040C
:1025D0002A280ED06FF02F022878A0F130010929A7
:1025E0000AD808EB880102EB410100EB01086D1CE1
:1025F000F2E757F8048B6D1C287869283ED006DC7A
:102600000028CDD063280BD0642804D136E073288D
:1026100010D075284BD052460D999047761C85E016
:1026200017F8040B8DF8000000208DF80100E94632
:10263000012003E057F8049B4FF0FF3061074FF093
:10264000000401D40AE0641C44450DDA8442FADB3C
:1026500019F804100029F6D106E0641C8442FCDB62
:1026600019F804100029F8D1264404E019F8010BE8
:1026700052460D999047641EF8D257E001CF4FF0B3
:102680000A0B002802DA40422D2102E0210504D580
:102690002B218DF82410012103E0E10705D0202132
:1026A000F7E70DF1200908910CE00021F9E701CFCF
:1026B0004FF00A0BF9E75946FDF767FE01F13002CA
:1026C00009F8012D0028F6D1ADEB090000F1200B2F
:1026D000600701D44FF00108D84502DDA8EB0B00DC
:1026E00000E000208046002406E009A85246005D74
:1026F0000D999047641C761C08988442F5DB04E031
:10270000302052460D999047761CB8F10001A8F18F
:102710000108F5DC05E019F8010B52460D999047C8
:10272000761CBBF10001ABF1010BF4DC6D1C34E74E
:102730000928010058B1426A002A0FD05379082BAA
:102740000CD10968D269914208D100F0C3BA04A340
:1027500040F28B3210A114A0FFF7E0BE70470000DA
:102760002E2E2F4D6964646C6577617265732F54EA
:10277000686972645F50617274792F4C7749502F89
:102780007372632F636F72652F697076342F64687C
:1027900063702E63000000006E6574696620213D41
:1027A000204E554C4C000000417373657274696F84
:1027B0006E2022257322206661696C656420617435
:1027C000206C696E6520256420696E2025730A00DF
:1027D0002DE9FC4105001AD06C6AECB1002363823C
:1027E000A16A4FF03C07B1F1FF3F4FF480364FF044
:1027F00001024FF6FF7019D01E31B1FBF7F1B14263
:1028000000D301460904090CA1820ED00EE02DA3CD
:1028100040F2154239A103E02AA340F217423EA13B
:1028200043A0FFF77BFEBDE8FC81A282E16AB1F123
:10283000FF3F0CD01E31B1FBF7F1B14200D301468E
:102840000904090C618100D162816189E181216BF8
:10285000B1F1FF3F0CD01E31B1FBF7F1B14200D313
:1028600001460904090CA18100D1A281A18921821C
:102870006289A1898A4201D301B16381E17909B1F9
:10288000206A08E0217F7F2901D8FF2003E0C029CA
:1028900001D36FF07F400090606A019028B9E06931
:1028A0000099084040F0807001900A21204601F014
:1028B00091FA01AB6A4604F11C01284604F0D2FCEF
:1028C000B1E700002E2E2F4D6964646C657761724C
:1028D00065732F54686972645F50617274792F4C0C
:1028E0007749502F7372632F636F72652F6970760B
:1028F000342F646863702E630000000064686370A6
:102900005F62696E643A206E6574696620213D20BD
:102910004E554C4C00000000646863705F62696E45
:10292000643A206468637020213D204E554C4C0071
:10293000417373657274696F6E202225732220665D
:1029400061696C6564206174206C696E6520256422
:1029500020696E2025730A0070B5446A0546082177
:10296000204601F037FA002204F11C01284601F04C
:1029700005FFA079FF2801D2401CA0714FF4FA7125
:1029800040F2E730B0FBF1F0208170BD70B529480E
:1029900004684CE0606AA0B3417991B3818A69B15F
:1029A000418A491C89B24182828A914206D12046DD
:1029B00001F046F8204601F015FA37E0018A19B116
:1029C0004A1E0282012906D0C189D1B14A1EC281A4
:1029D000012917D02AE0656A20466979012905D0C6
:1029E0000A2903D0052901D004291FD100F0ACFE2B
:1029F000A88A698A401A022818DB00EBD0704008C8
:102A0000288213E0656A20466979012903D00A29E2
:102A100001D005290AD101F071F8A889698A401A04
:102A2000022803DB00EBD0704008E8812468002C0A
:102A3000B0D170BD780000202DE9F04799461646C8
:102A40000D4607001BD0002D1ED04FF49A744FF492
:102A500020722146362005F03DF8B0F100081BD069
:102A6000B8F80A00A246504506D232A340F271726D
:102A70003EA14EA0FFF752FD032E12D10EE02DA372
:102A800040F2697253A103E02AA340F26A7259A18D
:102A900046A0FFF743FD0020BDE8F08768790328D2
:102AA00008D1A8795B4C08B1606802E0FDF71CFC16
:102AB00060602860D8F8044051462046FDF74DFC80
:102AC00001202070607097F83000A070286803F033
:102AD000CDFC6060082E0AD0042E08D0072E06D048
:102AE000032E06D16879052801D0042801D1786821
:102AF000E060002039182218401C91F82A1080B29A
:102B000011770628F6D34448C4F8EC0004F1F0012C
:102B1000012335220C46002000F0C4FA324621463B
:102B200000F00CFBB9F1000F01D0A9F800004046FD
:102B3000B2E700002E2E2F4D6964646C65776172D8
:102B400065732F54686972645F50617274792F4C99
:102B50007749502F7372632F636F72652F69707698
:102B6000342F646863702E63000000006468637033
:102B70005F6372656174655F6D73673A2063686552
:102B8000636B20746861742066697273742070626C
:102B900075662063616E20686F6C64207374727553
:102BA000637420646863705F6D736700417373655D
:102BB0007274696F6E2022257322206661696C65CC
:102BC00064206174206C696E6520256420696E2024
:102BD00025730A00646863705F6372656174655F82
:102BE0006D73673A206E6574696620213D204E55ED
:102BF0004C4C0000646863705F6372656174655F6C
:102C00006D73673A206468637020213D204E554CF7
:102C10004C000000B4C001206382536310B50B4C1C
:102C20002078002805D10AA3FF2217A11FA0FFF7D3
:102C300075FC2078401E10F0FF00207004D1A068C1
:102C40000BF074FF0020A06010BD0000B4C0012094
:102C50002E2E2F4D6964646C6577617265732F54F5
:102C6000686972645F50617274792F4C7749502F94
:102C70007372632F636F72652F697076342F646887
:102C800063702E6300000000646863705F706362AD
:102C90005F726566636F756E7428293A2072656687
:102CA000636F756E74206572726F72004173736525
:102CB0007274696F6E2022257322206661696C65CB
:102CC00064206174206C696E6520256420696E2023
:102CD00025730A00FEB5446A06460C21204601F021
:102CE00079F802AB042221463046FFF7A5FE050025
:102CF00028D069680423F03132220F46BDF808005D
:102D000000F0D0F9ADF80800E06903F0AFFB02462F
:102D10003946BDF8080000F06FFAADF808002A4601
:102D2000394600F039FB0F484323CDE900600F48D6
:102D30000D4A294680680BF0F1FF0646284605F04B
:102D4000DFFA01E04FF0FF36A079FF2801D2401CE6
:102D5000A07142F603104FF4FA71B0FBF1F020813C
:102D60003046FEBDC4040108C8040108B4C00120F7
:102D70002DE9FE4F446A07464FF000090621204620
:102D8000C4F81C9001F026F802AB01222146384617
:102D9000FFF752FE06003BD071680223F0318A46ED
:102DA00039225546BDF8080000F07CF9ADF808005E
:102DB0003A8D294600F08CFAADF80800032337223B
:102DC000294600F06FF9DFF88480ADF8080000258F
:102DD000514618F80520BDF8080000F0AFF96D1C49
:102DE000EDB2ADF80800032DF2D33246514680B261
:102DF00000F0D2FA16484323CDE900701348154A73
:102E0000401E314680680BF089FF304605F078FAA5
:102E1000A079FF2801D2401CA071C1B2062902D2BC
:102E20000120884000E03C2000EB4001C1EBC010D5
:102E30004FF6FF7101EAC0004FF4FA7100F2F3108F
:102E4000B0FBF1F020814846BDE8FE8FB5C00120FF
:102E5000C4040108C804010870B50B4800250468C3
:102E60000EE0606A58B10189012903D9A1F101017D
:102E7000018104E003D10581204601F055F8246862
:102E8000002CEED170BD00007800002070B5446ABF
:102E90000020154D20626062EA78144E0AB1F26893
:102EA000A2622A790AB1326901E0A26A5208E2629A
:102EB0006A790AB1726903E0A26AC2EBC202D2085F
:102EC00022630969E161A97921B1B06903F0CEFA01
:102ED00020620120E071E879002803D0F06903F056
:102EE000C5FA606270BD0000C0C00120C8CC0120DE
:102EF00010B5154C207800281ED1A068002805D0F8
:102F000012A3E5221FA129A0FFF708FB0BF0BCFDCF
:102F1000A060B0B1417A442241F0200141722D49B4
:102F20000BF0F8FA43222B49A0680BF08DFB00222E
:102F30002949A0680BF0B6FD2078401C20700020C5
:102F400010BD4FF0FF3010BDB4C001202E2E2F4D0C
:102F50006964646C6577617265732F546869726423
:102F60005F50617274792F4C7749502F7372632FC1
:102F7000636F72652F697076342F646863702E6397
:102F800000000000646863705F696E635F70636275
:102F90005F726566636F756E7428293A206D656D82
:102FA0006F7279206C65616B00000000417373657E
:102FB0007274696F6E2022257322206661696C65C8
:102FC00064206174206C696E6520256420696E2020
:102FD00025730A00C40401082139000870B5446A49
:102FE0000546002C22D060790026042818D004DC85
:102FF00000281BD0032804D112E0052810D00A288D
:103000000ED00C2806D90AA340F26D3216A11BA0DF
:10301000FFF784FAA6712846BDE87040FFF7A8BE06
:10302000A6712846BDE8704000F0FABB70BD0000F4
:103030002E2E2F4D6964646C6577617265732F5411
:10304000686972645F50617274792F4C7749502FB0
:103050007372632F636F72652F697076342F6468A3
:1030600063702E6300000000696E76616C696420F5
:10307000646863702D3E7374617465004173736599
:103080007274696F6E2022257322206661696C65F7
:1030900064206174206C696E6520256420696E204F
:1030A00025730A002DE9F0411D4604462844801C82
:1030B00017460E46442806D907A340F29A521449EF
:1030C00014A0FFF72BFA3755641CA0B23554401CEE
:1030D00080B2BDE8F08100002E2E2F4D6964646C33
:1030E0006577617265732F54686972645F506172AD
:1030F00074792F4C7749502F7372632F636F726509
:103100002F697076342F646863702E6300000000AE
:10311000A8050108417373657274696F6E202225DA
:103120007322206661696C6564206174206C696E2D
:103130006520256420696E2025730A0070B5154648
:103140000E460446442806D305A340F2A65212A117
:103150001FA0FFF7E3F93555641CA0B270BD000055
:103160002E2E2F4D6964646C6577617265732F54E0
:10317000686972645F50617274792F4C7749502F7F
:103180007372632F636F72652F697076342F646872
:1031900063702E6300000000646863705F6F70747A
:1031A000696F6E5F627974653A206F7074696F6ED3
:1031B000735F6F75745F6C656E203C2044484350AC
:1031C0005F4F5054494F4E535F4C454E0000000036
:1031D000417373657274696F6E20222573222066B5
:1031E00061696C6564206174206C696E652025647A
:1031F00020696E2025730A0070B50546001D14462F
:103200000E46442806D90BA340F2B75217A126A0B8
:10321000FFF784F9200E70556D1CA8B2210C3154B3
:10322000401C80B2210A3154401C80B23454401CEE
:1032300080B270BD2E2E2F4D6964646C657761720B
:1032400065732F54686972645F50617274792F4C92
:103250007749502F7372632F636F72652F69707691
:10326000342F646863702E6300000000646863702C
:103270005F6F7074696F6E5F6C6F6E673A206F700E
:1032800074696F6E735F6F75745F6C656E202B2051
:1032900034203C3D20444843505F4F5054494F4EEA
:1032A000535F4C454E000000417373657274696F43
:1032B0006E2022257322206661696C65642061742A
:1032C000206C696E6520256420696E2025730A00D4
:1032D00070B50446801C15460E46442806D907A33F
:1032E00040F2AE5213A122A0FFF718F9280A305578
:1032F000641CA0B23554401C80B270BD2E2E2F4DE0
:103300006964646C6577617265732F54686972646F
:103310005F50617274792F4C7749502F7372632F0D
:10332000636F72652F697076342F646863702E63E3
:1033300000000000646863705F6F7074696F6E5F97
:1033400073686F72743A206F7074696F6E735F6F19
:1033500075745F6C656E202B2032203C3D20444804
:1033600043505F4F5054494F4E535F4C454E000001
:10337000417373657274696F6E2022257322206613
:1033800061696C6564206174206C696E65202564D8
:1033900020696E2025730A00FF230B54401C80B265
:1033A000002302E00B54401C80B24428FAD3F030D2
:1033B00081B2104605F09EB82DE9F04F85B08246E7
:1033C000A14900200490C8600861BAF80A002C28BE
:1033D00017D3BAF808004FF0F00901F10C07564670
:1033E00007E000BFA9EB0201801A36681FFA81F9D5
:1033F00080B236B1728949464A45F3D90C460290EB
:10340000F0E06FF0010005B0BDE8F08FA11C89B2BB
:103410004FF0FF350191A142F3D37189621C9142B3
:1034200003D903992144497803E0316809B1496817
:1034300009783428884634D007DC98B1012814D0A4
:1034400003281AD0332808D122E0352850D0362856
:1034500057D03A285DD03B2863D04FF000080028B1
:1034600067D02DE000218846F9E7042903D077A32F
:1034700040F22E6211E00625F1E74FF0040804291E
:1034800004D272A340F233627EA1B2E00725E6E7E0
:10349000042904D06DA340F241627FA1A9E0032575
:1034A000DDE7012903D069A340F24F6225E0B9F1BD
:1034B000F00F04D065A340F251627AA199E0002593
:1034C0006018801CB0F5803F9BD284B2B8F1000F29
:1034D0007AD000200090082D06D35CA34FF4CF6271
:1034E00076A17BA0FFF71AF8785D002823D06BE067
:1034F000012904D055A340F255627FA179E001254E
:10350000ADE7042903D051A340F25962C5E7022573
:10351000A5E7042903D04DA340F25D62BDE7042571
:103520009DE7042903D049A340F26162B5E7052570
:1035300095E794B248E04046B8F1040F00D3042068
:103540008346024669463046019B04F04DFE5845CD
:103550007FF457AFB8F1040F1ED95FEA887004D02A
:103560003AA340F2816267A143E0012078550098B8
:1035700002F07CFF0146694840F82510A8F10400DC
:1035800000F0FF0801980199001D80B28842FFF405
:1035900038AF6D1C01909EE7B8F1040F07D0B8F169
:1035A000010F08D029A34FF4D2625DA121E0009859
:1035B00002F05CFF01E09DF80000009001207855CA
:1035C0005648009940F825107089A04217D8211A52
:1035D0008CB20299081A80B202908442BFF411AFF3
:1035E000366816B1706803900AE018A340F29D6235
:1035F00050A137A0FEF792FF6FF0050003E73EB140
:103600000298844204D20398005DFF287FF4FEAE46
:10361000387848B1414800210068397001280ED03F
:10362000022804D0032808D004980028E6D00020FF
:1036300004904FF02C096C20D1E6012004904FF04B
:103640006C09EC20CBE60000B4C001202E2E2F4DDB
:103650006964646C6577617265732F54686972641C
:103660005F50617274792F4C7749502F7372632FBA
:10367000636F72652F697076342F646863702E6390
:10368000000000006C656E203E3D206465636F6441
:10369000655F6C656E0000006C656E203D3D2034FA
:1036A000000000006F7665726C6F616420696E20A7
:1036B00066696C652F736E616D6500006368656394
:1036C0006B206465636F64655F6964780000000067
:1036D000417373657274696F6E20222573222066B0
:1036E00061696C6564206174206C696E6520256475
:1036F00020696E2025730A006C656E203D3D2031E7
:10370000000000006465636F64655F6C656E202572
:10371000252034203D3D203000000000C8CC012091
:10372000696E76616C6964206465636F64655F6C63
:10373000656E00006E657874207062756620776132
:1037400073206E756C6C00002DE9FC47446A0746D7
:103750000421204600F03EFB01AB032221463846FF
:10376000FFF76AF906003BD071680223F031894601
:1037700039224D46BDF80400FFF794FCADF8040073
:103780003A8D2946FFF7A4FDADF804000323372244
:103790002946FFF787FCDFF88080ADF8040000259C
:1037A000494618F80520BDF80400FFF7C7FC6D1C5A
:1037B000EDB2ADF80400032DF2D33246494680B293
:1037C000FFF7EAFD14480097401E4323134A314691
:1037D00080680BF003FA0546304604F091FD01E0E5
:1037E0004FF0FF35A079FF2801D2401CA071C0B274
:1037F0000A2804D24FF47A7110FB01F001E042F282
:10380000107080B24FF4FA7100F2F310B0FBF1F0D7
:1038100020812846BDE8FC87B5C00120C804010806
:103820002DE9FC47446A07460321204600F0D2FAFE
:1038300001AB032221463846FFF7FEF806004FD0C1
:1038400071680223F031894639224D46BDF80400E3
:10385000FFF728FCADF804004FF410722946FFF77B
:1038600037FDADF80400042332222946FFF71AFC85
:10387000ADF80400E06902F0F9FD02462946BDF802
:103880000400FFF7B9FCADF80400032337222946F2
:10389000FFF708FCDFF88080ADF80400002500BFCA
:1038A00018F805204946BDF80400FFF747FC6D1CD9
:1038B000EDB2ADF80400032DF2D33246494680B292
:1038C000FFF76AFD14480097401E4323134A314610
:1038D00080680BF083F90546304604F011FD01E0E5
:1038E0004FF0FF35A079FF2801D2401CA071C0B273
:1038F0000A2804D24FF47A7110FB01F001E042F281
:10390000107080B24FF4FA7100F2F310B0FBF1F0D6
:1039100020812846BDE8FC87B5C00120C804010805
:103920002DE9F0414248516816464468656A002D09
:1039300079D02879002876D070892C2873D308781C
:10394000022870D1002094F8302008E023180F18C6
:1039500093F82A303F7FBB4265D1401CC0B28242FF
:1039600001D90628F2D3486802F080FD2968884210
:1039700059D129463046FFF71FFD08BB2D4948782D
:10398000F0B12D4A77681079052804D0062821D097
:10399000022836D047E06879012806D0032814D0E1
:1039A000042812D0052810D03DE039462046FFF704
:1039B0006DFA94F83100000703D52046FEF7CCFFDE
:1039C00031E02046FEF704FF2DE039462046FFF7A0
:1039D0005DFAF6E76879032805D0012803D00428AA
:1039E00001D005281FD10C21606A00F0F3F9134BB8
:1039F00020461A46114603F035FC2046FFF7B8F979
:103A000011E0687906280ED12546646A887850B19D
:103A100000202081906802F029FDA0613869E061F2
:103A2000284600F0D7F83046BDE8F04104F068BC05
:103A3000681A0120C0C00120C8CC0120C4040108BC
:103A40002DE9FE43446A0746002C51D060790028D6
:103A50004ED0A06902900025A561E56125626562EE
:103A60002563E562A562A58265822582E5813846E7
:103A700000F04CFA60B301AB072221463846FEF74E
:103A8000DBFF060024D071680423F031362288461B
:103A9000BDF80400FFF706FBADF80400029802F041
:103AA000E5FC02464146BDF80400FFF7A5FBADF872
:103AB000040032464146FFF76FFC0E48009743234F
:103AC00002AA314680680BF089F8304604F018FCF1
:103AD000094B38461A46114603F0C4FB0021204624
:103AE00000F078F92079002802D0FFF797F82571C7
:103AF000BDE8FE83B4C00120C40401082DE9FC47E1
:103B0000446A07460521204600F064F901AB032210
:103B100021463846FEF790FF06003CD0716802232C
:103B2000F031894639224D46BDF80400FFF7BAFA54
:103B3000ADF804003A8D2946FFF7CAFBADF8040042
:103B4000032337222946FFF7ADFADFF88480ADF86A
:103B500004000025494618F80520BDF80400FFF7C9
:103B6000EDFA6D1CEDB2ADF80400032DF2D3324630
:103B7000494680B2FFF710FC15480097401E4323CA
:103B800004F11802314680680BF028F805463046EB
:103B900004F0B6FB01E04FF0FF35A079FF2801D219
:103BA000401CA071C0B20A2804D24FF4FA6110FB85
:103BB00001F001E044F6206080B24FF4FA7100F2A7
:103BC000F310B0FBF1F020812846BDE8FC8700002F
:103BD000B5C001202DE9FE43070073D07C6A002C9C
:103BE0007CD00121204600F0F5F802AB03222146EB
:103BF0003846FEF721FF06007AD071680223F031C3
:103C0000894639224D46BDF80800FFF74BFAADF85A
:103C100008003A8D2946FFF75BFBADF80800042346
:103C200032222946FFF73EFAADF80800E06902F0BB
:103C30001DFC02462946BDF80800FFF7DDFAADF885
:103C40000800042336222946FFF72CFAADF80800B5
:103C5000A06902F00BFC02462946BDF80800FFF7F8
:103C6000CBFAADF80800032337222946FFF71AFAEA
:103C7000DFF8BC80ADF80800002500BF18F805206B
:103C80004946BDF80800FFF759FA6D1CEDB2ADF8D2
:103C90000800032DF2D33246494680B2FFF77CFB81
:103CA00024484323CDE900702148234A401E314671
:103CB00080680BF033F80546304604F021FB19E02C
:103CC00000E00BE01DA340F277122AA130A0FEF71E
:103CD00025FC6FF00F00BDE8FE8309E017A340F25A
:103CE000791235A12AA0FEF719FC6FF00500F2E762
:103CF0004FF0FF35A079FF2801D2401CA071C0B25F
:103D0000062802D20121814000E03C2101EB410064
:103D1000C0EBC1104FF6FF7101EAC0004FF4FA7119
:103D200000F2F310B0FBF1F020812846D3E7000049
:103D3000B5C00120C4040108C80401082E2E2F4D6F
:103D40006964646C6577617265732F546869726425
:103D50005F50617274792F4C7749502F7372632FC3
:103D6000636F72652F697076342F646863702E6399
:103D700000000000646863705F73656C6563743A8B
:103D8000206E6574696620213D204E554C4C000024
:103D9000417373657274696F6E20222573222066E9
:103DA00061696C6564206174206C696E65202564AE
:103DB00020696E2025730A00646863705F73656C08
:103DC0006563743A206468637020213D204E554C31
:103DD0004C00000042798A4203D041710021817178
:103DE0000181704770B505006FF00F041AD095F887
:103DF0003100C0071BD0288D6C6A4FF0FF36B0F53C
:103E0000107F0DD3002C1BD0207908B1FEF706FFE0
:103E100034212046FCF7A1FAFFF76AF8002816D0F3
:103E2000304670BD14A340F2E72221A103E012A3A3
:103E30004FF43A7222A12BA0FEF770FB204670BD12
:103E4000342002F0B3FC0400EAD06C62E0E7012009
:103E5000207195F83100400705D402212046FFF774
:103E6000B9FF002070BD2846FEF782FF0028F9D078
:103E70002846FFF7E5FDD3E72E2E2F4D6964646CCD
:103E80006577617265732F54686972645F506172FF
:103E900074792F4C7749502F7372632F636F72655B
:103EA0002F697076342F646863702E630000000001
:103EB0006E6574696620213D204E554C4C00000013
:103EC0006E65746966206973206E6F742075702C3E
:103ED000206F6C64207374796C6520706F72743F0E
:103EE00000000000417373657274696F6E202225B3
:103EF0007322206661696C6564206174206C696E50
:103F00006520256420696E2025730A0040B1406A4F
:103F100030B140790A2805D0052803D0042801D003
:103F2000002070470120704710B5426A044651795D
:103F30000C290BD0062909D001290BD0082918D04B
:103F4000032926D19079022820461ED3BDE81040CF
:103F5000FEF70EBF90790528204603D8BDE8104033
:103F6000FFF738BEFFF76CFD2046BDE81040FFF7B5
:103F700039BF90790128204603D8BDE81040FEF7EC
:103F8000EBBCBDE81040FEF723BCBDE81040FFF7D6
:103F900047BC10BD70B505460C46880706D009A37E
:103FA0004FF4B67213A11BA0FEF7B8FA05F04EF954
:103FB000A96809682160A9680C60BDE8704005F037
:103FC00051B900002E2E2F4D6964646C65776172C3
:103FD00065732F54686972645F50617274792F4CF5
:103FE0007749502F7372632F636F72652F6D656D04
:103FF000702E63006D656D705F667265653A206D49
:10400000656D2070726F7065726C7920616C696784
:104010006E656400417373657274696F6E2022254A
:104020007322206661696C6564206174206C696E1E
:104030006520256420696E2025730A0070B504464A
:1040400005F004F90546A0680468002C0FD021682B
:104050000160A00706D008A34FF48C7212A11BA028
:10406000FEF75CFA284605F0FDF8204670BD2846AC
:1040700005F0F8F8002070BD2E2E2F4D6964646C99
:104080006577617265732F54686972645F506172FD
:1040900074792F4C7749502F7372632F636F726559
:1040A0002F6D656D702E63006D656D705F6D616C59
:1040B0006C6F633A206D656D702070726F70657201
:1040C0006C7920616C69676E65640000417373658B
:1040D0007274696F6E2022257322206661696C6597
:1040E00064206174206C696E6520256420696E20EF
:1040F00025730A0070B5094D0646002404EB440000
:1041000005EBC000017D29B18068B04202D1204694
:1041100000F036F9641C0A2CF0DB70BDE8CC0120FD
:104120002DE9F74F84B04FF00A0B00240646DA461B
:104130005F46D94602940194CDF80040514904EB02
:10414000440001EBC008039098F814500A2F1DD0CA
:10415000002D2AD0012D08D0022D06D24AA340F20C
:10416000231257A166A0FEF7D9F99EB13168D8F89D
:10417000040081420ED1069820B1D8F808100698A4
:10418000814207D1204607B0BDE8F08F002DE1D174
:1041900027460AE0012D16D0022D06D3B8F81200EA
:1041A0000099884201D3A2460090641C24B20A2CD4
:1041B000C4DB059881074FF0FF30E4D40A2F16D0F6
:1041C00018DA3C463EE02F49039851F830000028A9
:1041D000B8F8120005D002998842E6D3A1460290B1
:1041E000E3E701998842E0D3A3460190DDE7059912
:1041F000C907C8D05146BAF10A0F0EDA0C46214859
:1042000001EB440150F8310080B11FA340F26D1260
:1042100045A13BA0FEF782F908E05946BBF10A0F21
:1042200003DB4946B9F10A0FADDA0C460A2C06DB6E
:1042300015A340F27F1242A131A0FEF76FF920468C
:1042400000F09EF80A2C06DB0FA340F283123CA17B
:104250002BA0FEF763F90B4804EB440100EBC1050A
:10426000287D30B108A34FF4C2723AA124A0FEF712
:1042700055F90EB130686860002068820698A86021
:1042800080E70000E8CC01202E2E2F4D6964646C7D
:104290006577617265732F54686972645F506172EB
:1042A00074792F4C7749502F7372632F636F726547
:1042B0002F697076342F6574686172702E63000008
:1042C0007374617465203D3D204554484152505FF0
:1042D00053544154455F50454E44494E47207C7CE1
:1042E000207374617465203E3D204554484152500E
:1042F0005F53544154455F535441424C45000000C4
:10430000417373657274696F6E2022257322206673
:1043100061696C6564206174206C696E6520256438
:1043200020696E2025730A006172705F7461626C8F
:10433000655B695D2E71203D3D204E554C4C000063
:1043400069203C204152505F5441424C455F5349E3
:104350005A4500006172705F7461626C655B695DF3
:104360002E7374617465203D3D2045544841525080
:104370005F53544154455F454D505459000000006F
:1043800070B5074C00EB4005002654F8350018B115
:1043900003F0B6FF44F8356004EBC500067570BD48
:1043A000E8CC01202DE9F04385B00D00074609D087
:1043B0007C684FF480782088404542D120790628D7
:1043C0003FD109E021A340F28A222EA131A0FEF7BD
:1043D000A5F805B0BDE8F0836079042831D1608884
:1043E00008282ED1D4F80E000490A169686820B185
:1043F000814202D10126334601E00026022304F166
:104400000802914604A9284600F0ACFBE08840452C
:1044100003D0B0F5007F14D10FE096B1022204ABB7
:10442000CDE90232291DCDE9001905F12A0319460B
:104430004A46284600F096FA03E004A92846FEF70B
:1044400079F9384603F05CFFC3E700002E2E2F4DAC
:104450006964646C6577617265732F54686972640E
:104460005F50617274792F4C7749502F7372632FAC
:10447000636F72652F697076342F6574686172702E
:104480002E6300006E6574696620213D204E554CF8
:104490004C000000417373657274696F6E202225B1
:1044A0007322206661696C6564206174206C696E9A
:1044B0006520256420696E2025730A00FEB5154627
:1044C0000E46040006D143A340F21E324FA153A072
:1044D000FEF724F836B93FA340F21F3259A14FA08E
:1044E000FEF71CF835B93BA34FF4487258A14BA016
:1044F000FEF714F82146286800F0E0FE08B1584B9A
:104500003FE02868C0F303110E2925D0A168636835
:1045100000EA01020B409A4208D080B2A0F57E4129
:10452000A93903D0E068B0B304F10C054D4B4E48F7
:104530001A7802EB420100EBC1010F7D022F2ED34E
:104540008F68A7422BD12F6849688F4227D1314607
:10455000204600F08BF8FEBD01208DF804000020FD
:104560008DF805005E208DF80600687801AB00F03C
:104570007F008DF80700A8788DF80800E8788DF89E
:1045800009004FF40060009004F12A0231462046F1
:1045900000F01EFCFEBDFFE76FF00300FAE700220B
:1045A00002EB420100EBC1010F7D022F08D38F689F
:1045B000A74205D12F6849688F4201D11A70C6E71A
:1045C000521CD2B20A2AEBD332462946204600F0CA
:1045D000D5F8DFE72E2E2F4D6964646C6577617224
:1045E00065732F54686972645F50617274792F4CDF
:1045F0007749502F7372632F636F72652F697076DE
:10460000342F6574686172702E6300006E65746982
:104610006620213D204E554C4C00000041737365CF
:104620007274696F6E2022257322206661696C6541
:1046300064206174206C696E6520256420696E2099
:1046400025730A007120213D204E554C4C0000007E
:1046500069706164647220213D204E554C4C00000D
:104660006C030108CC000020E8CC01202DE9F843C0
:104670000646154688461C4802EB450100EBC1047E
:10468000207D022806D219A340F2EE2225A131A0F6
:10469000FDF744FF144A05EB4501207D02EBC105FF
:1046A0000C35022813D1608A0327B0F58E7F04D918
:1046B000211D304600F010FA07E0B0F5877F06D3E1
:1046C0002A46211D304600F00DFA00B927754FF437
:1046D000006000902B4606F12A024146304600F069
:1046E00077FBBDE8F8830000E8CC01202E2E2F4D8B
:1046F0006964646C6577617265732F54686972646C
:104700005F50617274792F4C7749502F7372632F09
:10471000636F72652F697076342F6574686172708B
:104720002E6300006172705F7461626C655B617220
:10473000705F6964785D2E7374617465203E3D20FE
:104740004554484152505F53544154455F5354417E
:10475000424C4500417373657274696F6E20222567
:104760007322206661696C6564206174206C696ED7
:104770006520256420696E2025730A002DE9FC5F01
:1047800082462A3001900E46086814464FF0FF37E3
:104790004FF0000B514600F091FD80B93068C0F336
:1047A00003110E290BD056B148B1524601213046B3
:1047B000FFF7B6FC050005D540B2BDE8FC9F6FF0E1
:1047C0000F00FAE77F2D06D337A340F2C13244A190
:1047D00047A0FDF7A3FE05F0FF094F4909EB490883
:1047E00001EBC805287D00280ED0012808D002283A
:1047F00006D22DA340F2CD3248A13DA0FDF78EFE9A
:10480000BBF1000F06D104E001202875C5F808A00F
:1048100000E034B93146504600F05EF90746002CFE
:10482000CBD0287D3C4E02280ED346494FF4006081
:1048300005F10C0381F80090009021465046019A42
:1048400000F0C6FA07462DE001282BD1254640F29C
:10485000F13768892989884207D1286828B112A3CD
:104860003A4639A122A0FDF759FE287B400607D51C
:1048700022464FF420710E2003F078FB044605E039
:104880002D68002DE5D1204603F0CEFE44B156F848
:10489000380008B103F034FD46F83840002701E045
:1048A0004FF0FF37384688E72E2E2F4D6964646C31
:1048B0006577617265732F54686972645F506172C5
:1048C00074792F4C7749502F7372632F636F726521
:1048D0002F697076342F6574686172702E630000E2
:1048E00074797065206F766572666C6F7700000072
:1048F000417373657274696F6E202225732220667E
:1049000061696C6564206174206C696E6520256442
:1049100020696E2025730A00E8CC01206172705F67
:104920007461626C655B695D2E7374617465203DB2
:104930003D2050454E44494E47206F72205354410C
:10494000424C4500CC0000206E6F207061636B65A7
:10495000742071756575657320616C6C6F77656423
:10496000210000002DE9FF4F81B09846DDE90FA935
:10497000DDF838B006004FF0000706D12CA340F256
:10498000574239A13CA0FDF7C9FD4FF420721C210C
:104990000E2003F09FF8050046D068891C2806D237
:1049A00023A340F262423EA133A0FDF7B7FD6C683D
:1049B000119801F05DFDE08096F83000062806D0E1
:1049C0001BA340F2694243492BA0FDF7A7FDD8F88D
:1049D0000010A160B8F80400A081DAF80010C4F853
:1049E0001210BAF80400E082DBF80000C4F80E00F0
:1049F000D9F80000A0614FF480702080082060800A
:104A0000062020710420607140F60600DDE90223D3
:104A100000902946304600F0DBF9284603F070FC90
:104A2000384605B0BDE8F08F4FF0FF30F9E70000E1
:104A30002E2E2F4D6964646C6577617265732F54F7
:104A4000686972645F50617274792F4C7749502F96
:104A50007372632F636F72652F697076342F65747C
:104A6000686172702E6300006E6574696620213D76
:104A7000204E554C4C000000417373657274696F91
:104A80006E2022257322206661696C656420617442
:104A9000206C696E6520256420696E2025730A00EC
:104AA000636865636B2074686174206669727374EF
:104AB00020706275662063616E20686F6C6420737D
:104AC0007472756374206574686172705F68647273
:104AD00000000000EC050108014A00F003B80000E6
:104AE0006C0301087FB5064D031D0124CDE9003597
:104AF000CDE9021426331946FFF734FF04B070BD28
:104B00007203010870B5164D002400BF04EB440089
:104B100005EBC002117DF1B1508A401C80B2508279
:104B2000B0F5967F0AD2012906D003290AD00429BC
:104B30000AD001290BD00EE0052808D32046FFF744
:104B40001FFC08E0042000E00220107503E0111DA6
:104B50009068FFF7C1FF641C0A2CD7DB70BD000012
:104B6000E8CC0120F8B5044690F830001F46164600
:104B70000D46062806D020A340F2A9122CA135A08C
:104B8000FDF7CCFC9DB1286888B1214600F096FB6A
:104B900068B92878C0F303100E2808D02246394699
:104BA0002846FFF7BDFA002804DA40B2F8BD6FF0DE
:104BB0000F00F8BD00EB40013048022300EBC102BA
:104BC000137594603368D360B388138200235382D3
:104BD00050F8315075B140F831304FF4006000901A
:104BE000334604F12A022946204600F0F1F828460F
:104BF00003F086FB0020F8BD2E2E2F4D6964646CF7
:104C00006577617265732F54686972645F50617271
:104C100074792F4C7749502F7372632F636F7265CD
:104C20002F697076342F6574686172702E6300008E
:104C30006E657469662D3E6877616464725F6C6549
:104C40006E203D3D204554485F4857414444525FE3
:104C50004C454E00417373657274696F6E20222556
:104C60007322206661696C6564206174206C696ED2
:104C70006520256420696E2025730A00E8CC012098
:104C80002DE9F041044640890E270D460E283CD9F7
:104C9000E07B18B995F83400401CE0736068017837
:104CA0008689CA0714D0012905D006221C49FBF7C2
:104CB0005FFB48B10CE0417851B980785E2807D19C
:104CC000607B40F0100002E0607B40F00800607301
:104CD000082E03D0B6F5C16F17D10DE095F831005D
:104CE000000712D53946204603F0ECFC68B9294686
:104CF000204600F02BFC10E095F83100000704D5A9
:104D00003946204603F0DEFC18B1204603F0F8FADD
:104D100003E029462046FFF745FB0020BDE8F0816F
:104D20006C030108704700009AB00746642168468A
:104D3000FBF713FB0026354634464FF480484FF40A
:104D400000692248FDF70FF997F8311049070CD593
:104D500001282BDC1D48E838FCF7FCF9384602F046
:104D6000B7FA384602F00CFB20E001281EDD0228CD
:104D700020D0032820D0042821D0052821D0AEB18E
:104D800012486946E838FBF73CFE1048CDE9055467
:104D90006946E838FCF739F90C48E838FCF77CF943
:104DA000384602F0A7FB384602F040FB642002F0D0
:104DB000F1FBC6E74C4600E00024454603E04C46C4
:104DC00000E0002400250126DAE70000D0C301201E
:104DD0002DE9F04104461F4690460E46069801F024
:104DE00047FB05460E21304602F011FE18B16FF068
:104DF0000100BDE8F0817068858139680160B9887B
:104E00008180D8F80020C0F80620B8F8041041814D
:104E100094F83000062806D006A34FF4997213A127
:104E20001FA0FDF77BFB31462046A269BDE8F0419B
:104E3000104700002E2E2F4D6964646C65776172F7
:104E400065732F54686972645F50617274792F4C76
:104E50007749502F7372632F6E657469662F65747E
:104E60006865726E65742E63000000006E6574697B
:104E7000662D3E6877616464725F6C656E206D7547
:104E80007374206265203620666F722065746865D1
:104E9000726E65745F6F7574707574210000000028
:104EA000417373657274696F6E20222573222066C8
:104EB00061696C6564206174206C696E652025648D
:104EC00020696E2025730A0010B5040006D10BA3DB
:104ED0004FF4F27210A114A0FDF720FB732084F8A8
:104EE0003200742084F83300194860611948A061C9
:104EF000204601F083F9002010BD00002E2E2F4C1B
:104F00005749502F5461726765742F6574686572D4
:104F10006E657469662E63006E6574696620213D56
:104F2000204E554C4C000000417373657274696FDC
:104F30006E2022257322206661696C65642061748D
:104F4000206C696E6520256420696E2025730A0037
:104F5000BD4400089D63000808B50F4D04464FF09E
:104F6000FF3800274146686802F066FC0028F9D146
:104F70000097287818B969460848FBF732FF009E69
:104F8000002EEFD022692146304690470028EFD00E
:104F9000304603F0B5F9EBE704000020E8C2012039
:104FA00038B504468DF8000069460320ABBE2046A4
:104FB00038BD0A46032100F0F5B800002DE9FE4F88
:104FC0008A4644490446D1F8088098F80000000752
:104FD000850E142D79D36089042876D36068007813
:104FE000002872D0082870D1486901F11407C0F375
:104FF00003120E2A69D08946096800F05FF900287B
:1050000063D12089082860D305F10E010E462046A1
:1050100002F0FDFC002830D02089411989B2884275
:1050200053D84FF420720E2002F054FD06004CD0ED
:10503000718905F10800814216D32A4641467068FD
:10504000FBF764F92946304603F03CFB002806D004
:1050500021A3B6222EA13CA0FDF760FA04E0214670
:10506000304602F0D1FF18B1304603F049F92CE088
:10507000204603F045F934460CE03146204603F063
:1050800021FB002806D014A3C72239A12EA0FDF7CA
:1050900045FA1AE029462046666802F0B8FCA0B935
:1050A00060683968FF22C160D9F8101001610021E1
:1050B000317071800272418101228DE806040A4636
:1050C000FF233946204600F021FB2046BDE8FE4F75
:1050D00003F016B9681A01202E2E2F4D6964646CF6
:1050E0006577617265732F54686972645F5061728D
:1050F00074792F4C7749502F7372632F636F7265E9
:105100002F697076342F69636D702E630000000084
:1051100069636D705F696E7075743A206D6F766942
:105120006E6720722D3E7061796C6F616420746FC0
:105130002069636D702068656164657220666169CD
:105140006C65640A00000000417373657274696FD6
:105150006E2022257322206661696C65642061746B
:10516000206C696E6520256420696E2025730A0015
:1051700069636D705F696E7075743A2072657374DF
:105180006F72696E67206F726967696E616C2070FB
:105190002D3E7061796C6F6164206661696C656435
:1051A0000A0000002DE9FF479146884606464FF465
:1051B00020722421222002F08DFC050031D0688964
:1051C000242806D218A34FF4B47225A12FA0FDF70E
:1051D000A5F96C6877681C2284F8008084F8019037
:1051E0004FF00008A4F80480A4F80680686871688D
:1051F0000830FBF78BF8F868039003A800F096FCE2
:1052000060B1A4F802800122CDF80080CDE9012030
:10521000FF2303AA0021284600F078FA284603F06D
:105220006FF8BDE8FF8700002E2E2F4D6964646C77
:105230006577617265732F54686972645F5061723B
:1052400074792F4C7749502F7372632F636F726597
:105250002F697076342F69636D702E630000000033
:10526000636865636B207468617420666972737427
:1052700020706275662063616E20686F6C642069BF
:10528000636D70206D65737361676500417373654D
:105290007274696F6E2022257322206661696C65C5
:1052A00064206174206C696E6520256420696E201D
:1052B00025730A000A460B21FFF774BF421C12D067
:1052C00088B191F8312092070BD54B68834208D002
:1052D000896800EA01020B409A4202D10143491C4D
:1052E00001D0002070470120704700002DE9F74FE2
:1052F00088B00446099800251426008DAF1F143885
:10530000C11700EB5170C0F3CF00039060680690A6
:10531000017801F00F01052903D038460BB0BDE834
:10532000F08F6189142907D25BA34FF43F7269A102
:105330006FA0FDF7F3F8F0E7C08801F099F8C0F32B
:105340000C0100F4005002910790208914381FFAD4
:1053500080F88EE003984FF6FF7101EAC0004146E5
:10536000404500D9084604904FF4207214210E20C5
:1053700002F0B0FB5FEA000A7ED0BAF80A001428F7
:1053800006D245A34FF4497263A159A0FDF7C6F8B0
:105390001422DAF804000699FAF7B8FFDAF80400E4
:1053A0000590049F35E06089811B8DB2B04206D222
:1053B00039A340F22D3260A14DA0FDF7AFF8AF4206
:1053C00000D23D461DB3052001F0C8FC5FEA00098C
:1053D00057D060684B463044CDE90005412229464C
:1053E000002002F0FDFC5FEA000B50D0204603F0E5
:1053F0001BF95549C9E904145946504602F00CFD01
:10540000781B07043F0C06D000262468CBE72468ED
:105410000026002FC7D1701986B20998008D143864
:1054200040450298C0F30C0001DB079909B140F434
:10543000005001F01DF80599C8800498143080B21E
:1054400001F016F8059948800598002141810998D6
:1054500051460A9A43699847504602F051FF049911
:10546000A8EB01001FFA80F8DDE90201084480B2D0
:105470000290B8F1000F00E006E07FF46BAF00206F
:105480004CE7504602F03CFF4FF0FF3046E74846FD
:1054900000F07CFBF5E700002E2E2F4D6964646C54
:1054A0006577617265732F54686972645F506172C9
:1054B00074792F4C7749502F7372632F636F726525
:1054C0002F697076342F6970345F667261672E635E
:1054D000000000006970345F6672616728293A2015
:1054E0007062756620746F6F2073686F727400004D
:1054F000417373657274696F6E2022257322206672
:1055000061696C6564206174206C696E6520256436
:1055100020696E2025730A0074686973206E6565C2
:1055200064732061207062756620696E206F6E65FD
:105530002070696563652100702D3E6C656E203EAC
:105540003D20706F66660000656100082DE9F04738
:10555000456807460E4628780421B1EB101F03D09A
:10556000384602F0CDFE86E000074FEA9068688872
:1055700000F07EFF04463889A04203D92146384610
:1055800002F0B8FF79894145EAD33889A042E7D3D0
:10559000B8F1140FE4D32969DFF83C91C1F303108B
:1055A0000E28C9F81410EA68C9F8102005D0304652
:1055B00000F096F850B1344616E096F83100C00776
:1055C00002D070680028F6D1002412E099F8140087
:1055D00000247F280DD04148046808E0B44205D07B
:1055E000204600F07DF808B11CB10BE02468002CC7
:1055F000F4D1687A112805D105EB08004088B0F590
:10560000884F36D0D9F810205AB131461046FFF7EE
:1056100055FE0028A4D199F81000C0F303100E28FD
:105620009ED0002C9CD0E88830F0C00005D03846D1
:1056300000F038F907001ED07D68C9F80850C9E9A4
:105640000046297838460907890EA9F80C1041460A
:1056500003F038F8687A01281AD0062813D01128E8
:105660000CD04D462146D9F81400FFF727FEA0B113
:1056700020E03446D5E70020BDE8F08731463846C3
:1056800009F06EF819E03146384604F0F9FD14E0EF
:1056900031463846FFF792FC0FE0287DC0F3031037
:1056A0000E2807D04146384602F00CFF022138464A
:1056B000FFF77FFC384602F023FE0021C9F80010F6
:1056C000C9F80410C9F80810A9F80C10C9F810108E
:1056D000C9F81410CFE70000681A012078000020F4
:1056E00010B590F83110C9070CD0416851B1064A85
:1056F00052698A4204D001461046FFF7DFFD08B127
:10570000012010BD002010BD681A0120FEB5DDE9A2
:105710000954089E1AB109B10F6807B9211D0096F6
:10572000CDE9015400F002F8FEBD00002DE9F84F6C
:105730000546DDE90BA8807BDDF828B01F4616463C
:105740008946012806D02FA34FF455723AA13DA0F7
:10575000FCF7E4FE6FF00104002E35D0142128463A
:1057600002F055F9002832D168896C68142806D2F5
:1057700024A34FF462723DA132A0FCF7CFFE277242
:1057800084F809A0306820614520207084F801B0B9
:10579000288900F06DFE414F60804FF0000AA4F8A8
:1057A00006A0388800F064FEA0803888401C38804D
:1057B000B9F1000F05D0D9F80000E060A4F80AA004
:1057C0000CE037480068F8E76889142802D22046C0
:1057D000BDE8F88F68686E4600690090B8F8280048
:1057E00040B12989814205D9324641462846FFF712
:1057F0007DFDEDE7D8F814304046324629469847FB
:10580000E6E700002E2E2F4D6964646C65776172A7
:1058100065732F54686972645F50617274792F4C9C
:105820007749502F7372632F636F72652F6970769B
:10583000342F6970342E6300702D3E726566203DF2
:105840003D203100417373657274696F6E202225AB
:105850007322206661696C6564206174206C696ED6
:105860006520256420696E2025730A0063686563DE
:105870006B2074686174206669727374207062753D
:10588000662063616E20686F6C6420737472756348
:10589000742069705F68647200000000CE00002010
:1058A000C40401082DE9F05F45688346287800F0BC
:1058B0000F0005287DD1E88800F0DAFDC004070C50
:1058C000688800F0D5FD29780907890E814270D8D3
:1058D000401A1FFA80F8584602F03FFB6A4C064611
:1058E000208830440A2809D93146284600F0E4FBD4
:1058F00000285ED0208830440A28E8D8A146646891
:105900004FF0000A0CE06069E968884207D1A0699D
:105910002969884203D1A089A988884203D02468D4
:10592000002CF0D106E02CB1E88800F0A1FDC00405
:105930001BD025E0042001F011FA04000AD1314601
:10594000284600F0B9FBB04233DB042001F006FA30
:105950000400CED02021FAF700FD0F20E077D9F81F
:1059600004102160C9F8044004E0E08900F080FDE3
:10597000C00405D01422294604F10800FAF7C6FC39
:10598000A87940F340156D1C08D007EB080080B2E1
:10599000B84263D34FF6EB7188425FD82A46594626
:1059A000204600F03BF9411C58D0B9F800203244A1
:1059B00000E064E0A9F8002035B107EB0801A183FD
:1059C000A17F41F00101A177012845D1A08B1422CC
:1059D000143087B2606804F10801456828462E68D3
:1059E000FAF794FC384600F043FD6880A5F806A05D
:1059F000A5F80AA0656809E014213046776802F02E
:105A000061FE3146284602F007FA3E68002EF3D1C7
:105A1000D9F804104E468C4205D1002105E00868F3
:105A2000A04202D001460029F9D1204600F01AFA1E
:105A3000284602F092FA04463088A04206D213A308
:105A400040F29B2220A127A0FCF768FD3088001BB4
:105A500030802846BDE8F09F0020FBE7606870B901
:105A6000D9F80400844206D008A340F2AB2227A153
:105A70001CA0FCF753FD0021204600F0F3F9584626
:105A800002F03EFCE8E70000C8C001202E2E2F4D9A
:105A90006964646C6577617265732F5468697264B8
:105AA0005F50617274792F4C7749502F7372632F56
:105AB000636F72652F697076342F6970345F667218
:105AC00061672E630000000069705F726561737327
:105AD0005F70627566636F756E74203E3D20636C07
